{
  "contractName": "GroupController",
  "abi": [
    {
      "constant": true,
      "inputs": [],
      "name": "groupCount",
      "outputs": [
        {
          "name": "",
          "type": "uint256"
        }
      ],
      "payable": false,
      "stateMutability": "view",
      "type": "function"
    },
    {
      "inputs": [],
      "payable": false,
      "stateMutability": "nonpayable",
      "type": "constructor"
    },
    {
      "constant": false,
      "inputs": [
        {
          "name": "description",
          "type": "string"
        }
      ],
      "name": "createGroup",
      "outputs": [],
      "payable": false,
      "stateMutability": "nonpayable",
      "type": "function"
    },
    {
      "constant": false,
      "inputs": [
        {
          "name": "group_id",
          "type": "uint256"
        },
        {
          "name": "member",
          "type": "address"
        }
      ],
      "name": "addMember",
      "outputs": [],
      "payable": false,
      "stateMutability": "nonpayable",
      "type": "function"
    },
    {
      "constant": false,
      "inputs": [
        {
          "name": "group_id",
          "type": "uint256"
        },
        {
          "name": "member",
          "type": "address"
        }
      ],
      "name": "deleteMember",
      "outputs": [],
      "payable": false,
      "stateMutability": "nonpayable",
      "type": "function"
    },
    {
      "constant": false,
      "inputs": [
        {
          "name": "group_id",
          "type": "uint256"
        },
        {
          "name": "newOwner",
          "type": "address"
        }
      ],
      "name": "changeOwner",
      "outputs": [],
      "payable": false,
      "stateMutability": "nonpayable",
      "type": "function"
    },
    {
      "constant": true,
      "inputs": [],
      "name": "getOnwedGroups",
      "outputs": [
        {
          "name": "",
          "type": "uint256[]"
        }
      ],
      "payable": false,
      "stateMutability": "view",
      "type": "function"
    },
    {
      "constant": true,
      "inputs": [
        {
          "name": "user",
          "type": "address"
        },
        {
          "name": "group_id",
          "type": "uint256"
        }
      ],
      "name": "checkMember",
      "outputs": [
        {
          "name": "",
          "type": "bool"
        }
      ],
      "payable": false,
      "stateMutability": "view",
      "type": "function"
    },
    {
      "constant": true,
      "inputs": [
        {
          "name": "id",
          "type": "uint256"
        }
      ],
      "name": "getGroup",
      "outputs": [
        {
          "name": "owner",
          "type": "address"
        },
        {
          "name": "description",
          "type": "string"
        }
      ],
      "payable": false,
      "stateMutability": "view",
      "type": "function"
    }
  ],
  "bytecode": "0x608060405234801561001057600080fd5b50610a9d806100206000396000f30060806040526004361061008e576000357c0100000000000000000000000000000000000000000000000000000000900463ffffffff168063149c07881461009357806374d0a676146100ff578063784796f71461014c5780638f23b326146101995780639a8bf4e0146101c4578063ceb6065414610211578063dc2ddcae146102ea578063df09c03114610353575b600080fd5b34801561009f57600080fd5b506100a86103b8565b6040518080602001828103825283818151815260200191508051906020019060200280838360005b838110156100eb5780820151818401526020810190506100d0565b505050509050019250505060405180910390f35b34801561010b57600080fd5b5061014a60048036038101908080359060200190929190803573ffffffffffffffffffffffffffffffffffffffff16906020019092919050505061044d565b005b34801561015857600080fd5b5061019760048036038101908080359060200190929190803573ffffffffffffffffffffffffffffffffffffffff16906020019092919050505061052b565b005b3480156101a557600080fd5b506101ae6105f6565b6040518082815260200191505060405180910390f35b3480156101d057600080fd5b5061020f60048036038101908080359060200190929190803573ffffffffffffffffffffffffffffffffffffffff1690602001909291905050506105fc565b005b34801561021d57600080fd5b5061023c600480360381019080803590602001909291905050506106da565b604051808373ffffffffffffffffffffffffffffffffffffffff1673ffffffffffffffffffffffffffffffffffffffff16815260200180602001828103825283818151815260200191508051906020019080838360005b838110156102ae578082015181840152602081019050610293565b50505050905090810190601f1680156102db5780820380516001836020036101000a031916815260200191505b50935050505060405180910390f35b3480156102f657600080fd5b50610351600480360381019080803590602001908201803590602001908080601f01602080910402602001604051908101604052809392919081815260200183838082843782019150505050505091929192905050506107c1565b005b34801561035f57600080fd5b5061039e600480360381019080803573ffffffffffffffffffffffffffffffffffffffff16906020019092919080359060200190929190505050610965565b604051808215151515815260200191505060405180910390f35b6060600360003373ffffffffffffffffffffffffffffffffffffffff1673ffffffffffffffffffffffffffffffffffffffff16815260200190815260200160002080548060200260200160405190810160405280929190818152602001828054801561044357602002820191906000526020600020905b81548152602001906001019080831161042f575b5050505050905090565b816002600082815260200190815260200160002060010160009054906101000a900473ffffffffffffffffffffffffffffffffffffffff1673ffffffffffffffffffffffffffffffffffffffff163373ffffffffffffffffffffffffffffffffffffffff161415156104be57600080fd5b600160008085815260200190815260200160002060008473ffffffffffffffffffffffffffffffffffffffff1673ffffffffffffffffffffffffffffffffffffffff16815260200190815260200160002060006101000a81548160ff021916908315150217905550505050565b816002600082815260200190815260200160002060010160009054906101000a900473ffffffffffffffffffffffffffffffffffffffff1673ffffffffffffffffffffffffffffffffffffffff163373ffffffffffffffffffffffffffffffffffffffff1614151561059c57600080fd5b816002600085815260200190815260200160002060010160006101000a81548173ffffffffffffffffffffffffffffffffffffffff021916908373ffffffffffffffffffffffffffffffffffffffff160217905550505050565b60015481565b816002600082815260200190815260200160002060010160009054906101000a900473ffffffffffffffffffffffffffffffffffffffff1673ffffffffffffffffffffffffffffffffffffffff163373ffffffffffffffffffffffffffffffffffffffff1614151561066d57600080fd5b600080600085815260200190815260200160002060008473ffffffffffffffffffffffffffffffffffffffff1673ffffffffffffffffffffffffffffffffffffffff16815260200190815260200160002060006101000a81548160ff021916908315150217905550505050565b6000606060006002600085815260200190815260200160002090508060010160009054906101000a900473ffffffffffffffffffffffffffffffffffffffff169250806002018054600181600116156101000203166002900480601f0160208091040260200160405190810160405280929190818152602001828054600181600116156101000203166002900480156107b45780601f10610789576101008083540402835291602001916107b4565b820191906000526020600020905b81548152906001019060200180831161079757829003601f168201915b5050505050915050915091565b60016000815480929190600101919050555060606040519081016040528060015481526020013373ffffffffffffffffffffffffffffffffffffffff168152602001828152506002600060015481526020019081526020016000206000820151816000015560208201518160010160006101000a81548173ffffffffffffffffffffffffffffffffffffffff021916908373ffffffffffffffffffffffffffffffffffffffff16021790555060408201518160020190805190602001906108899291906109cc565b509050506001600080600154815260200190815260200160002060003373ffffffffffffffffffffffffffffffffffffffff1673ffffffffffffffffffffffffffffffffffffffff16815260200190815260200160002060006101000a81548160ff021916908315150217905550600360003373ffffffffffffffffffffffffffffffffffffffff1673ffffffffffffffffffffffffffffffffffffffff168152602001908152602001600020600154908060018154018082558091505090600182039060005260206000200160009091929091909150555050565b600080600083815260200190815260200160002060008473ffffffffffffffffffffffffffffffffffffffff1673ffffffffffffffffffffffffffffffffffffffff16815260200190815260200160002060009054906101000a900460ff16905092915050565b828054600181600116156101000203166002900490600052602060002090601f016020900481019282601f10610a0d57805160ff1916838001178555610a3b565b82800160010185558215610a3b579182015b82811115610a3a578251825591602001919060010190610a1f565b5b509050610a489190610a4c565b5090565b610a6e91905b80821115610a6a576000816000905550600101610a52565b5090565b905600a165627a7a72305820dbbc79203bfeeb9b73e286fdee5ec4819e119d32e5b1688df4db2d740b6a0e5f0029",
  "source": "pragma solidity ^0.4.2;\ncontract GroupController {\n\tmapping(uint => mapping(address => bool)) isMember;\n\n\tstruct Group {\n\t\tuint id;\n\t\taddress owner;\n\t\tstring description;\n\t}\n\tuint public groupCount;\n\tmapping(uint => Group) groups;\n\tmapping(address => uint[]) ownedGroups;\n\n\t modifier onlyOwner(uint group_id) {\n  \t\trequire(msg.sender  == groups[group_id].owner);\n  \t\t_;\n \t }\n\n \tconstructor () public {\n    }\n\n\tfunction createGroup(string description) public {\n\t\tgroupCount++;\n\t\tgroups[groupCount] = Group({id: groupCount, owner: msg.sender, description: description});\n\t\tisMember[groupCount][msg.sender] = true;\n\t\townedGroups[msg.sender].push(groupCount);\n\t}\n\tfunction addMember(uint group_id, address member) onlyOwner(group_id) public {\n\t\tisMember[group_id][member] = true;\n\t}\n\tfunction deleteMember(uint group_id, address member) onlyOwner(group_id) public {\n\t\tisMember[group_id][member] = false;\n\t}\n\tfunction changeOwner(uint group_id, address newOwner) onlyOwner(group_id) public {\n\t\tgroups[group_id].owner = newOwner;\n\t}\n\tfunction getOnwedGroups() public view returns (uint[] memory){\n\t\treturn ownedGroups[msg.sender];\n\t}\n\t//Caution: Do not use msg.sender or tx.origin here due to possible vulnerability\n\tfunction checkMember(address user, uint group_id) public view returns(bool) {\n\t\treturn isMember[group_id][user];\n\t}\n\tfunction getGroup(uint id) public view returns(\n\t\taddress owner,\n\t\tstring description\n\t\t) {\n\t\tGroup storage item = groups[id];\n\t\towner = item.owner;\n\t\tdescription = item.description;\n\t}\n\n}",
  "sourcePath": "/Users/zbw0046/oneDrive/OneDrive - HKUST Connect/CourseWork/MSBD6000D/project/VoteChain/chain/contracts/GroupController.sol",
  "compiler": {
    "name": "solc",
    "version": "0.4.25+commit.59dbf8f1.Emscripten.clang"
  },
  "schemaVersion": "2.0.2",
  "updatedAt": "2019-05-04T17:03:51.623Z"
}