{
  "contractName": "VoteController",
  "abi": [
    {
      "constant": true,
      "inputs": [],
      "name": "name",
      "outputs": [
        {
          "name": "",
          "type": "string"
        }
      ],
      "payable": false,
      "stateMutability": "view",
      "type": "function"
    },
    {
      "constant": false,
      "inputs": [
        {
          "name": "spender",
          "type": "address"
        },
        {
          "name": "value",
          "type": "uint256"
        }
      ],
      "name": "approve",
      "outputs": [
        {
          "name": "",
          "type": "bool"
        }
      ],
      "payable": false,
      "stateMutability": "nonpayable",
      "type": "function"
    },
    {
      "constant": true,
      "inputs": [],
      "name": "totalSupply",
      "outputs": [
        {
          "name": "",
          "type": "uint256"
        }
      ],
      "payable": false,
      "stateMutability": "view",
      "type": "function"
    },
    {
      "constant": false,
      "inputs": [
        {
          "name": "from",
          "type": "address"
        },
        {
          "name": "to",
          "type": "address"
        },
        {
          "name": "value",
          "type": "uint256"
        }
      ],
      "name": "transferFrom",
      "outputs": [
        {
          "name": "",
          "type": "bool"
        }
      ],
      "payable": false,
      "stateMutability": "nonpayable",
      "type": "function"
    },
    {
      "constant": true,
      "inputs": [],
      "name": "DECIMALS",
      "outputs": [
        {
          "name": "",
          "type": "uint8"
        }
      ],
      "payable": false,
      "stateMutability": "view",
      "type": "function"
    },
    {
      "constant": true,
      "inputs": [],
      "name": "INITIAL_SUPPLY",
      "outputs": [
        {
          "name": "",
          "type": "uint256"
        }
      ],
      "payable": false,
      "stateMutability": "view",
      "type": "function"
    },
    {
      "constant": true,
      "inputs": [],
      "name": "decimals",
      "outputs": [
        {
          "name": "",
          "type": "uint8"
        }
      ],
      "payable": false,
      "stateMutability": "view",
      "type": "function"
    },
    {
      "constant": false,
      "inputs": [
        {
          "name": "spender",
          "type": "address"
        },
        {
          "name": "addedValue",
          "type": "uint256"
        }
      ],
      "name": "increaseAllowance",
      "outputs": [
        {
          "name": "",
          "type": "bool"
        }
      ],
      "payable": false,
      "stateMutability": "nonpayable",
      "type": "function"
    },
    {
      "constant": true,
      "inputs": [
        {
          "name": "owner",
          "type": "address"
        }
      ],
      "name": "balanceOf",
      "outputs": [
        {
          "name": "",
          "type": "uint256"
        }
      ],
      "payable": false,
      "stateMutability": "view",
      "type": "function"
    },
    {
      "constant": true,
      "inputs": [],
      "name": "symbol",
      "outputs": [
        {
          "name": "",
          "type": "string"
        }
      ],
      "payable": false,
      "stateMutability": "view",
      "type": "function"
    },
    {
      "constant": false,
      "inputs": [
        {
          "name": "spender",
          "type": "address"
        },
        {
          "name": "subtractedValue",
          "type": "uint256"
        }
      ],
      "name": "decreaseAllowance",
      "outputs": [
        {
          "name": "",
          "type": "bool"
        }
      ],
      "payable": false,
      "stateMutability": "nonpayable",
      "type": "function"
    },
    {
      "constant": false,
      "inputs": [
        {
          "name": "to",
          "type": "address"
        },
        {
          "name": "value",
          "type": "uint256"
        }
      ],
      "name": "transfer",
      "outputs": [
        {
          "name": "",
          "type": "bool"
        }
      ],
      "payable": false,
      "stateMutability": "nonpayable",
      "type": "function"
    },
    {
      "constant": true,
      "inputs": [
        {
          "name": "owner",
          "type": "address"
        },
        {
          "name": "spender",
          "type": "address"
        }
      ],
      "name": "allowance",
      "outputs": [
        {
          "name": "",
          "type": "uint256"
        }
      ],
      "payable": false,
      "stateMutability": "view",
      "type": "function"
    },
    {
      "inputs": [
        {
          "name": "groupControllerAddress",
          "type": "address"
        }
      ],
      "payable": false,
      "stateMutability": "nonpayable",
      "type": "constructor"
    },
    {
      "anonymous": false,
      "inputs": [
        {
          "indexed": true,
          "name": "from",
          "type": "address"
        },
        {
          "indexed": true,
          "name": "to",
          "type": "address"
        },
        {
          "indexed": false,
          "name": "value",
          "type": "uint256"
        }
      ],
      "name": "Transfer",
      "type": "event"
    },
    {
      "anonymous": false,
      "inputs": [
        {
          "indexed": true,
          "name": "owner",
          "type": "address"
        },
        {
          "indexed": true,
          "name": "spender",
          "type": "address"
        },
        {
          "indexed": false,
          "name": "value",
          "type": "uint256"
        }
      ],
      "name": "Approval",
      "type": "event"
    },
    {
      "constant": false,
      "inputs": [
        {
          "name": "stake",
          "type": "uint256"
        },
        {
          "name": "description",
          "type": "string"
        },
        {
          "name": "rate",
          "type": "uint8"
        },
        {
          "name": "options",
          "type": "string"
        },
        {
          "name": "expirationTime",
          "type": "uint256"
        }
      ],
      "name": "addOpenTopic",
      "outputs": [],
      "payable": false,
      "stateMutability": "nonpayable",
      "type": "function"
    },
    {
      "constant": false,
      "inputs": [
        {
          "name": "groupId",
          "type": "uint256"
        },
        {
          "name": "stake",
          "type": "uint256"
        },
        {
          "name": "description",
          "type": "string"
        },
        {
          "name": "rate",
          "type": "uint8"
        },
        {
          "name": "options",
          "type": "string"
        },
        {
          "name": "expirationTime",
          "type": "uint256"
        }
      ],
      "name": "addGroupTopic",
      "outputs": [],
      "payable": false,
      "stateMutability": "nonpayable",
      "type": "function"
    },
    {
      "constant": true,
      "inputs": [],
      "name": "getTopicCount",
      "outputs": [
        {
          "name": "",
          "type": "uint256"
        }
      ],
      "payable": false,
      "stateMutability": "view",
      "type": "function"
    },
    {
      "constant": true,
      "inputs": [
        {
          "name": "id",
          "type": "uint256"
        },
        {
          "name": "canVote",
          "type": "bool"
        }
      ],
      "name": "getTopic",
      "outputs": [
        {
          "name": "owner",
          "type": "address"
        },
        {
          "name": "stake",
          "type": "uint256"
        },
        {
          "name": "description",
          "type": "string"
        },
        {
          "name": "rate",
          "type": "uint8"
        },
        {
          "name": "options",
          "type": "string"
        },
        {
          "name": "count1",
          "type": "uint256"
        },
        {
          "name": "count2",
          "type": "uint256"
        },
        {
          "name": "lastVoteTime",
          "type": "uint256"
        },
        {
          "name": "createTime",
          "type": "uint256"
        },
        {
          "name": "expirationTime",
          "type": "uint256"
        },
        {
          "name": "groupId",
          "type": "uint256"
        }
      ],
      "payable": false,
      "stateMutability": "view",
      "type": "function"
    },
    {
      "constant": true,
      "inputs": [
        {
          "name": "topic_id",
          "type": "uint256"
        }
      ],
      "name": "getPayUnit",
      "outputs": [
        {
          "name": "",
          "type": "uint256"
        }
      ],
      "payable": false,
      "stateMutability": "view",
      "type": "function"
    },
    {
      "constant": true,
      "inputs": [
        {
          "name": "owner",
          "type": "address"
        }
      ],
      "name": "getOwnedTopic",
      "outputs": [
        {
          "name": "",
          "type": "uint256[]"
        }
      ],
      "payable": false,
      "stateMutability": "view",
      "type": "function"
    },
    {
      "constant": true,
      "inputs": [
        {
          "name": "topic_id",
          "type": "uint256"
        }
      ],
      "name": "checkPayPermission",
      "outputs": [
        {
          "name": "",
          "type": "uint256"
        }
      ],
      "payable": false,
      "stateMutability": "view",
      "type": "function"
    },
    {
      "constant": false,
      "inputs": [
        {
          "name": "topic_id",
          "type": "uint256"
        }
      ],
      "name": "payoff",
      "outputs": [],
      "payable": false,
      "stateMutability": "nonpayable",
      "type": "function"
    },
    {
      "constant": true,
      "inputs": [
        {
          "name": "topic_id",
          "type": "uint256"
        }
      ],
      "name": "permissionCheck",
      "outputs": [
        {
          "name": "",
          "type": "uint8"
        }
      ],
      "payable": false,
      "stateMutability": "view",
      "type": "function"
    },
    {
      "constant": true,
      "inputs": [
        {
          "name": "user",
          "type": "address"
        },
        {
          "name": "topic_id",
          "type": "uint256"
        }
      ],
      "name": "isUserVote",
      "outputs": [
        {
          "name": "",
          "type": "bool"
        }
      ],
      "payable": false,
      "stateMutability": "view",
      "type": "function"
    },
    {
      "constant": true,
      "inputs": [
        {
          "name": "user",
          "type": "address"
        },
        {
          "name": "topic_id",
          "type": "uint256"
        }
      ],
      "name": "isUserPaid",
      "outputs": [
        {
          "name": "",
          "type": "bool"
        }
      ],
      "payable": false,
      "stateMutability": "view",
      "type": "function"
    },
    {
      "constant": false,
      "inputs": [
        {
          "name": "topic_id",
          "type": "uint256"
        },
        {
          "name": "option_index",
          "type": "uint256"
        }
      ],
      "name": "vote",
      "outputs": [],
      "payable": false,
      "stateMutability": "nonpayable",
      "type": "function"
    },
    {
      "constant": true,
      "inputs": [
        {
          "name": "topic_id",
          "type": "uint256"
        }
      ],
      "name": "getVotedOption",
      "outputs": [
        {
          "name": "",
          "type": "uint256"
        }
      ],
      "payable": false,
      "stateMutability": "view",
      "type": "function"
    }
  ],
  "bytecode": "0x60806040523480156200001157600080fd5b5060405160208062002c2f833981018060405281019080805190602001909291905050506040805190810160405280600981526020017f566f7465546f6b656e00000000000000000000000000000000000000000000008152506040805190810160405280600381526020017f564f54000000000000000000000000000000000000000000000000000000000081525060128260039080519060200190620000bb929190620002ea565b508160049080519060200190620000d4929190620002ea565b5080600560006101000a81548160ff021916908360ff160217905550505050600060068190555080600560016101000a81548173ffffffffffffffffffffffffffffffffffffffff021916908373ffffffffffffffffffffffffffffffffffffffff1602179055506200016233601260ff16600a0a6127100262000169640100000000026401000000009004565b5062000399565b60008273ffffffffffffffffffffffffffffffffffffffff16141515156200019057600080fd5b620001b581600254620002c86401000000000262002309179091906401000000009004565b6002819055506200021c816000808573ffffffffffffffffffffffffffffffffffffffff1673ffffffffffffffffffffffffffffffffffffffff16815260200190815260200160002054620002c86401000000000262002309179091906401000000009004565b6000808473ffffffffffffffffffffffffffffffffffffffff1673ffffffffffffffffffffffffffffffffffffffff168152602001908152602001600020819055508173ffffffffffffffffffffffffffffffffffffffff16600073ffffffffffffffffffffffffffffffffffffffff167fddf252ad1be2c89b69c2b068fc378daa952ba7f163c4a11628f55a4df523b3ef836040518082815260200191505060405180910390a35050565b6000808284019050838110151515620002e057600080fd5b8091505092915050565b828054600181600116156101000203166002900490600052602060002090601f016020900481019282601f106200032d57805160ff19168380011785556200035e565b828001600101855582156200035e579182015b828111156200035d57825182559160200191906001019062000340565b5b5090506200036d919062000371565b5090565b6200039691905b808211156200039257600081600090555060010162000378565b5090565b90565b61288680620003a96000396000f300608060405260043610610154576000357c0100000000000000000000000000000000000000000000000000000000900463ffffffff16806306fdde0314610159578063095ea7b3146101e957806318160ddd1461024e57806323b872dd146102795780632e0f2625146102fe5780632ff2e9dc1461032f578063313ce5671461035a578063395093511461038b5780635ca5a2e1146103f057806370a08231146104c05780637fa084a21461051757806386d236bf146105445780638ad282f1146106d35780638ae083921461071457806395d89b411461077957806399b3141b14610809578063a457c2d71461084a578063a9059cbb146108af578063b216984a14610914578063b384abef14610955578063cc89698c1461098c578063d58cdcc4146109b7578063dd62ed3e14610a1c578063e2bec71414610a93578063ec8a767714610b6d578063f825893114610c05575b600080fd5b34801561016557600080fd5b5061016e610c4c565b6040518080602001828103825283818151815260200191508051906020019080838360005b838110156101ae578082015181840152602081019050610193565b50505050905090810190601f1680156101db5780820380516001836020036101000a031916815260200191505b509250505060405180910390f35b3480156101f557600080fd5b50610234600480360381019080803573ffffffffffffffffffffffffffffffffffffffff16906020019092919080359060200190929190505050610cee565b604051808215151515815260200191505060405180910390f35b34801561025a57600080fd5b50610263610e1b565b6040518082815260200191505060405180910390f35b34801561028557600080fd5b506102e4600480360381019080803573ffffffffffffffffffffffffffffffffffffffff169060200190929190803573ffffffffffffffffffffffffffffffffffffffff16906020019092919080359060200190929190505050610e25565b604051808215151515815260200191505060405180910390f35b34801561030a57600080fd5b50610313610fd7565b604051808260ff1660ff16815260200191505060405180910390f35b34801561033b57600080fd5b50610344610fdc565b6040518082815260200191505060405180910390f35b34801561036657600080fd5b5061036f610feb565b604051808260ff1660ff16815260200191505060405180910390f35b34801561039757600080fd5b506103d6600480360381019080803573ffffffffffffffffffffffffffffffffffffffff16906020019092919080359060200190929190505050611002565b604051808215151515815260200191505060405180910390f35b3480156103fc57600080fd5b506104be60048036038101908080359060200190929190803590602001908201803590602001908080601f0160208091040260200160405190810160405280939291908181526020018383808284378201915050505050509192919290803560ff169060200190929190803590602001908201803590602001908080601f016020809104026020016040519081016040528093929190818152602001838380828437820191505050505050919291929080359060200190929190505050611239565b005b3480156104cc57600080fd5b50610501600480360381019080803573ffffffffffffffffffffffffffffffffffffffff169060200190929190505050611250565b6040518082815260200191505060405180910390f35b34801561052357600080fd5b5061054260048036038101908080359060200190929190505050611298565b005b34801561055057600080fd5b5061057b600480360381019080803590602001909291908035151590602001909291905050506114af565b604051808c73ffffffffffffffffffffffffffffffffffffffff1673ffffffffffffffffffffffffffffffffffffffff1681526020018b8152602001806020018a60ff1660ff1681526020018060200189815260200188815260200187815260200186815260200185815260200184815260200183810383528c818151815260200191508051906020019080838360005b8381101561062757808201518184015260208101905061060c565b50505050905090810190601f1680156106545780820380516001836020036101000a031916815260200191505b5083810382528a818151815260200191508051906020019080838360005b8381101561068d578082015181840152602081019050610672565b50505050905090810190601f1680156106ba5780820380516001836020036101000a031916815260200191505b509d505050505050505050505050505060405180910390f35b3480156106df57600080fd5b506106fe600480360381019080803590602001909291905050506117b2565b6040518082815260200191505060405180910390f35b34801561072057600080fd5b5061075f600480360381019080803573ffffffffffffffffffffffffffffffffffffffff169060200190929190803590602001909291905050506117d2565b604051808215151515815260200191505060405180910390f35b34801561078557600080fd5b5061078e61183a565b6040518080602001828103825283818151815260200191508051906020019080838360005b838110156107ce5780820151818401526020810190506107b3565b50505050905090810190601f1680156107fb5780820380516001836020036101000a031916815260200191505b509250505060405180910390f35b34801561081557600080fd5b50610834600480360381019080803590602001909291905050506118dc565b6040518082815260200191505060405180910390f35b34801561085657600080fd5b50610895600480360381019080803573ffffffffffffffffffffffffffffffffffffffff16906020019092919080359060200190929190505050611936565b604051808215151515815260200191505060405180910390f35b3480156108bb57600080fd5b506108fa600480360381019080803573ffffffffffffffffffffffffffffffffffffffff16906020019092919080359060200190929190505050611b6d565b604051808215151515815260200191505060405180910390f35b34801561092057600080fd5b5061093f60048036038101908080359060200190929190505050611b84565b6040518082815260200191505060405180910390f35b34801561096157600080fd5b5061098a6004803603810190808035906020019092919080359060200190929190505050611cba565b005b34801561099857600080fd5b506109a1611dfb565b6040518082815260200191505060405180910390f35b3480156109c357600080fd5b50610a02600480360381019080803573ffffffffffffffffffffffffffffffffffffffff16906020019092919080359060200190929190505050611e05565b604051808215151515815260200191505060405180910390f35b348015610a2857600080fd5b50610a7d600480360381019080803573ffffffffffffffffffffffffffffffffffffffff169060200190929190803573ffffffffffffffffffffffffffffffffffffffff169060200190929190505050611e6d565b6040518082815260200191505060405180910390f35b348015610a9f57600080fd5b50610b6b6004803603810190808035906020019092919080359060200190929190803590602001908201803590602001908080601f0160208091040260200160405190810160405280939291908181526020018383808284378201915050505050509192919290803560ff169060200190929190803590602001908201803590602001908080601f016020809104026020016040519081016040528093929190818152602001838380828437820191505050505050919291929080359060200190929190505050611ef4565b005b348015610b7957600080fd5b50610bae600480360381019080803573ffffffffffffffffffffffffffffffffffffffff16906020019092919050505061201f565b6040518080602001828103825283818151815260200191508051906020019060200280838360005b83811015610bf1578082015181840152602081019050610bd6565b505050509050019250505060405180910390f35b348015610c1157600080fd5b50610c30600480360381019080803590602001909291905050506120bc565b604051808260ff1660ff16815260200191505060405180910390f35b606060038054600181600116156101000203166002900480601f016020809104026020016040519081016040528092919081815260200182805460018160011615610100020316600290048015610ce45780601f10610cb957610100808354040283529160200191610ce4565b820191906000526020600020905b815481529060010190602001808311610cc757829003601f168201915b5050505050905090565b60008073ffffffffffffffffffffffffffffffffffffffff168373ffffffffffffffffffffffffffffffffffffffff1614151515610d2b57600080fd5b81600160003373ffffffffffffffffffffffffffffffffffffffff1673ffffffffffffffffffffffffffffffffffffffff16815260200190815260200160002060008573ffffffffffffffffffffffffffffffffffffffff1673ffffffffffffffffffffffffffffffffffffffff168152602001908152602001600020819055508273ffffffffffffffffffffffffffffffffffffffff163373ffffffffffffffffffffffffffffffffffffffff167f8c5be1e5ebec7d5bd14f71427d1e84f3dd0314c0f7b2291e5b200ac8c7c3b925846040518082815260200191505060405180910390a36001905092915050565b6000600254905090565b6000600160008573ffffffffffffffffffffffffffffffffffffffff1673ffffffffffffffffffffffffffffffffffffffff16815260200190815260200160002060003373ffffffffffffffffffffffffffffffffffffffff1673ffffffffffffffffffffffffffffffffffffffff168152602001908152602001600020548211151515610eb257600080fd5b610f4182600160008773ffffffffffffffffffffffffffffffffffffffff1673ffffffffffffffffffffffffffffffffffffffff16815260200190815260200160002060003373ffffffffffffffffffffffffffffffffffffffff1673ffffffffffffffffffffffffffffffffffffffff168152602001908152602001600020546120cf90919063ffffffff16565b600160008673ffffffffffffffffffffffffffffffffffffffff1673ffffffffffffffffffffffffffffffffffffffff16815260200190815260200160002060003373ffffffffffffffffffffffffffffffffffffffff1673ffffffffffffffffffffffffffffffffffffffff16815260200190815260200160002081905550610fcc8484846120f0565b600190509392505050565b601281565b601260ff16600a0a6127100281565b6000600560009054906101000a900460ff16905090565b60008073ffffffffffffffffffffffffffffffffffffffff168373ffffffffffffffffffffffffffffffffffffffff161415151561103f57600080fd5b6110ce82600160003373ffffffffffffffffffffffffffffffffffffffff1673ffffffffffffffffffffffffffffffffffffffff16815260200190815260200160002060008673ffffffffffffffffffffffffffffffffffffffff1673ffffffffffffffffffffffffffffffffffffffff1681526020019081526020016000205461230990919063ffffffff16565b600160003373ffffffffffffffffffffffffffffffffffffffff1673ffffffffffffffffffffffffffffffffffffffff16815260200190815260200160002060008573ffffffffffffffffffffffffffffffffffffffff1673ffffffffffffffffffffffffffffffffffffffff168152602001908152602001600020819055508273ffffffffffffffffffffffffffffffffffffffff163373ffffffffffffffffffffffffffffffffffffffff167f8c5be1e5ebec7d5bd14f71427d1e84f3dd0314c0f7b2291e5b200ac8c7c3b925600160003373ffffffffffffffffffffffffffffffffffffffff1673ffffffffffffffffffffffffffffffffffffffff16815260200190815260200160002060008773ffffffffffffffffffffffffffffffffffffffff1673ffffffffffffffffffffffffffffffffffffffff168152602001908152602001600020546040518082815260200191505060405180910390a36001905092915050565b611249336000878787878761232a565b5050505050565b60008060008373ffffffffffffffffffffffffffffffffffffffff1673ffffffffffffffffffffffffffffffffffffffff168152602001908152602001600020549050919050565b60008060006112a684611b84565b1415156112b257600080fd5b6001600b60003373ffffffffffffffffffffffffffffffffffffffff1673ffffffffffffffffffffffffffffffffffffffff168152602001908152602001600020600085815260200190815260200160002060006101000a81548160ff021916908315150217905550600760008481526020019081526020016000209150600082600c015414156113c0578160080154826007015401905081600801548260070154111561137d5781600701548260030154820281151561136f57fe5b0482600c01819055506113bf565b8160070154826008015411156113b0578160080154826003015482028115156113a257fe5b0482600c01819055506113be565b816003015482600c01819055505b5b5b8160080154826007015411801561142757506001600a60003373ffffffffffffffffffffffffffffffffffffffff1673ffffffffffffffffffffffffffffffffffffffff168152602001908152602001600020600085815260200190815260200160002054145b8061149557508160070154826008015411801561149457506002600a60003373ffffffffffffffffffffffffffffffffffffffff1673ffffffffffffffffffffffffffffffffffffffff168152602001908152602001600020600085815260200190815260200160002054145b5b156114aa576114a9303384600c01546120f0565b5b505050565b6000806060600060606000806000806000806000600760008f8152602001908152602001600020905080600101549150600082141580156114ed57508c5b156115fe57600560019054906101000a900473ffffffffffffffffffffffffffffffffffffffff1673ffffffffffffffffffffffffffffffffffffffff1663df09c03133846040518363ffffffff167c0100000000000000000000000000000000000000000000000000000000028152600401808373ffffffffffffffffffffffffffffffffffffffff1673ffffffffffffffffffffffffffffffffffffffff16815260200182815260200192505050602060405180830381600087803b1580156115b757600080fd5b505af11580156115cb573d6000803e3d6000fd5b505050506040513d60208110156115e157600080fd5b810190808051906020019092919050505015156115fd57600080fd5b5b8060020160009054906101000a900473ffffffffffffffffffffffffffffffffffffffff169b5080600301549a50806004018054600181600116156101000203166002900480601f0160208091040260200160405190810160405280929190818152602001828054600181600116156101000203166002900480156116c45780601f10611699576101008083540402835291602001916116c4565b820191906000526020600020905b8154815290600101906020018083116116a757829003601f168201915b505050505099508060050160009054906101000a900460ff169850806006018054600181600116156101000203166002900480601f0160208091040260200160405190810160405280929190818152602001828054600181600116156101000203166002900480156117775780601f1061174c57610100808354040283529160200191611777565b820191906000526020600020905b81548152906001019060200180831161175a57829003601f168201915b5050505050975080600701549650806008015495508060090154945080600a0154935080600b01549250509295989b509295989b9093969950565b600060076000838152602001908152602001600020600c01549050919050565b6000600b60008473ffffffffffffffffffffffffffffffffffffffff1673ffffffffffffffffffffffffffffffffffffffff168152602001908152602001600020600083815260200190815260200160002060009054906101000a900460ff16905092915050565b606060048054600181600116156101000203166002900480601f0160208091040260200160405190810160405280929190818152602001828054600181600116156101000203166002900480156118d25780601f106118a7576101008083540402835291602001916118d2565b820191906000526020600020905b8154815290600101906020018083116118b557829003601f168201915b5050505050905090565b6000600a60003373ffffffffffffffffffffffffffffffffffffffff1673ffffffffffffffffffffffffffffffffffffffff1681526020019081526020016000206000838152602001908152602001600020549050919050565b60008073ffffffffffffffffffffffffffffffffffffffff168373ffffffffffffffffffffffffffffffffffffffff161415151561197357600080fd5b611a0282600160003373ffffffffffffffffffffffffffffffffffffffff1673ffffffffffffffffffffffffffffffffffffffff16815260200190815260200160002060008673ffffffffffffffffffffffffffffffffffffffff1673ffffffffffffffffffffffffffffffffffffffff168152602001908152602001600020546120cf90919063ffffffff16565b600160003373ffffffffffffffffffffffffffffffffffffffff1673ffffffffffffffffffffffffffffffffffffffff16815260200190815260200160002060008573ffffffffffffffffffffffffffffffffffffffff1673ffffffffffffffffffffffffffffffffffffffff168152602001908152602001600020819055508273ffffffffffffffffffffffffffffffffffffffff163373ffffffffffffffffffffffffffffffffffffffff167f8c5be1e5ebec7d5bd14f71427d1e84f3dd0314c0f7b2291e5b200ac8c7c3b925600160003373ffffffffffffffffffffffffffffffffffffffff1673ffffffffffffffffffffffffffffffffffffffff16815260200190815260200160002060008773ffffffffffffffffffffffffffffffffffffffff1673ffffffffffffffffffffffffffffffffffffffff168152602001908152602001600020546040518082815260200191505060405180910390a36001905092915050565b6000611b7a3384846120f0565b6001905092915050565b60008060076000848152602001908152602001600020905080600b0154421015611bb15760019150611cb4565b600960003373ffffffffffffffffffffffffffffffffffffffff1673ffffffffffffffffffffffffffffffffffffffff168152602001908152602001600020600084815260200190815260200160002060009054906101000a900460ff161515611c1e5760029150611cb4565b600b60003373ffffffffffffffffffffffffffffffffffffffff1673ffffffffffffffffffffffffffffffffffffffff168152602001908152602001600020600084815260200190815260200160002060009054906101000a900460ff1615611c8a5760039150611cb4565b600081600701541480611ca1575060008160080154145b15611caf5760049150611cb4565b600091505b50919050565b600080611cc6846120bc565b60ff16141515611cd557600080fd5b6001600960003373ffffffffffffffffffffffffffffffffffffffff1673ffffffffffffffffffffffffffffffffffffffff168152602001908152602001600020600085815260200190815260200160002060006101000a81548160ff02191690831515021790555081600a60003373ffffffffffffffffffffffffffffffffffffffff1673ffffffffffffffffffffffffffffffffffffffff168152602001908152602001600020600085815260200190815260200160002081905550600760008481526020019081526020016000209050611db6308260030154611b6d565b506001821415611dd85760018160070160008282540192505081905550611df6565b6002821415611df557600181600801600082825401925050819055505b5b505050565b6000600654905090565b6000600960008473ffffffffffffffffffffffffffffffffffffffff1673ffffffffffffffffffffffffffffffffffffffff168152602001908152602001600020600083815260200190815260200160002060009054906101000a900460ff16905092915050565b6000600160008473ffffffffffffffffffffffffffffffffffffffff1673ffffffffffffffffffffffffffffffffffffffff16815260200190815260200160002060008373ffffffffffffffffffffffffffffffffffffffff1673ffffffffffffffffffffffffffffffffffffffff16815260200190815260200160002054905092915050565b8560011515600560019054906101000a900473ffffffffffffffffffffffffffffffffffffffff1673ffffffffffffffffffffffffffffffffffffffff1663df09c03133846040518363ffffffff167c0100000000000000000000000000000000000000000000000000000000028152600401808373ffffffffffffffffffffffffffffffffffffffff1673ffffffffffffffffffffffffffffffffffffffff16815260200182815260200192505050602060405180830381600087803b158015611fbe57600080fd5b505af1158015611fd2573d6000803e3d6000fd5b505050506040513d6020811015611fe857600080fd5b8101908080519060200190929190505050151514151561200757600080fd5b6120163388888888888861232a565b50505050505050565b60606000600860008473ffffffffffffffffffffffffffffffffffffffff1673ffffffffffffffffffffffffffffffffffffffff1681526020019081526020016000209050808054806020026020016040519081016040528092919081815260200182805480156120af57602002820191906000526020600020905b81548152602001906001019080831161209b575b5050505050915050919050565b60006120c8338361254d565b9050919050565b6000808383111515156120e157600080fd5b82840390508091505092915050565b6000808473ffffffffffffffffffffffffffffffffffffffff1673ffffffffffffffffffffffffffffffffffffffff16815260200190815260200160002054811115151561213d57600080fd5b600073ffffffffffffffffffffffffffffffffffffffff168273ffffffffffffffffffffffffffffffffffffffff161415151561217957600080fd5b6121ca816000808673ffffffffffffffffffffffffffffffffffffffff1673ffffffffffffffffffffffffffffffffffffffff168152602001908152602001600020546120cf90919063ffffffff16565b6000808573ffffffffffffffffffffffffffffffffffffffff1673ffffffffffffffffffffffffffffffffffffffff1681526020019081526020016000208190555061225d816000808573ffffffffffffffffffffffffffffffffffffffff1673ffffffffffffffffffffffffffffffffffffffff1681526020019081526020016000205461230990919063ffffffff16565b6000808473ffffffffffffffffffffffffffffffffffffffff1673ffffffffffffffffffffffffffffffffffffffff168152602001908152602001600020819055508173ffffffffffffffffffffffffffffffffffffffff168373ffffffffffffffffffffffffffffffffffffffff167fddf252ad1be2c89b69c2b068fc378daa952ba7f163c4a11628f55a4df523b3ef836040518082815260200191505060405180910390a3505050565b600080828401905083811015151561232057600080fd5b8091505092915050565b612332612733565b6006600081548092919060010191905055506101a06040519081016040528060065481526020018881526020018973ffffffffffffffffffffffffffffffffffffffff1681526020018781526020018681526020018560ff1681526020018481526020016000815260200160008152602001600081526020014281526020018381526020016000815250905080600760006006548152602001908152602001600020600082015181600001556020820151816001015560408201518160020160006101000a81548173ffffffffffffffffffffffffffffffffffffffff021916908373ffffffffffffffffffffffffffffffffffffffff1602179055506060820151816003015560808201518160040190805190602001906124559291906127b5565b5060a08201518160050160006101000a81548160ff021916908360ff16021790555060c08201518160060190805190602001906124939291906127b5565b5060e082015181600701556101008201518160080155610120820151816009015561014082015181600a015561016082015181600b015561018082015181600c0155905050600860008973ffffffffffffffffffffffffffffffffffffffff1673ffffffffffffffffffffffffffffffffffffffff16815260200190815260200160002060065490806001815401808255809150509060018203906000526020600020016000909192909190915055505050505050505050565b600080600760008481526020019081526020016000209050806003015461257385611250565b1015612582576001915061272c565b60008160010154141580156126985750600560019054906101000a900473ffffffffffffffffffffffffffffffffffffffff1673ffffffffffffffffffffffffffffffffffffffff1663df09c0318583600101546040518363ffffffff167c0100000000000000000000000000000000000000000000000000000000028152600401808373ffffffffffffffffffffffffffffffffffffffff1673ffffffffffffffffffffffffffffffffffffffff16815260200182815260200192505050602060405180830381600087803b15801561265b57600080fd5b505af115801561266f573d6000803e3d6000fd5b505050506040513d602081101561268557600080fd5b8101908080519060200190929190505050155b156126a6576002915061272c565b600960008573ffffffffffffffffffffffffffffffffffffffff1673ffffffffffffffffffffffffffffffffffffffff168152602001908152602001600020600084815260200190815260200160002060009054906101000a900460ff1615612712576003915061272c565b80600b0154421115612727576004915061272c565b600091505b5092915050565b6101a0604051908101604052806000815260200160008152602001600073ffffffffffffffffffffffffffffffffffffffff1681526020016000815260200160608152602001600060ff168152602001606081526020016000815260200160008152602001600081526020016000815260200160008152602001600081525090565b828054600181600116156101000203166002900490600052602060002090601f016020900481019282601f106127f657805160ff1916838001178555612824565b82800160010185558215612824579182015b82811115612823578251825591602001919060010190612808565b5b5090506128319190612835565b5090565b61285791905b8082111561285357600081600090555060010161283b565b5090565b905600a165627a7a7230582081266530f843986a198233ee90600710c9c65e6658f3fb25a8f6153d81de5c8c0029",
  "source": "pragma solidity ^0.4.2;\nimport \"openzeppelin-solidity/contracts/token/ERC20/ERC20.sol\";\nimport \"openzeppelin-solidity/contracts/token/ERC20/ERC20Detailed.sol\";\nimport \"openzeppelin-solidity/contracts/ownership/Ownable.sol\";\nimport \"openzeppelin-solidity/contracts/math/SafeMath.sol\";\nimport './GroupController.sol';\n\ncontract VoteController is ERC20, ERC20Detailed   {\n\tusing SafeMath for uint256;\n\n  uint8 public constant DECIMALS = 18;\n  uint256 public constant INITIAL_SUPPLY = 10000 * (10 ** uint256(DECIMALS));\n\n\tGroupController groupController;\n\n\tuint topicCount;\n    // topic index by id\n  \tmapping(uint => Topic) internal topics;\n  \t  // Mapping from owner to list of owned topic IDs\n  \tmapping (address => uint256[]) internal ownedTopics;\n\n  \t// //get permissioned voters' addresses according to topic id \n  \t// mapping(uint => address[]) internal topicVoters;\n\n  \t//check if a person have voted a certain topic\n  \tmapping(address => mapping(uint => bool)) internal isVote;\n\n    //the index of option of user voted on a certain topic\n    mapping(address => mapping(uint => uint)) internal votedOption;\n\n\n\n  \t//check if a person have been paid in one voting\n  \tmapping(address => mapping(uint => bool)) internal isPaid;\n\n\n  \tmodifier beforeExpiration(uint256 _id) {\n  \t\trequire(block.timestamp <= topics[_id].expirationTime);\n  \t\t_;\n  \t}\n\n  \tmodifier onlyMember(uint groupId) {\n  \t\trequire(groupController.checkMember(msg.sender, groupId) == true);\n  \t\t_;\n  \t}\n  \t\n\n\n  \tconstructor (address groupControllerAddress) public ERC20Detailed(\"VoteToken\", \"VOT\", DECIMALS) {\n        topicCount = 0;\n        groupController = GroupController(groupControllerAddress);\n        _mint(msg.sender, INITIAL_SUPPLY);\n    }\n\n\n\n\n struct Topic {\n  \tuint256 id; //take index in allTokens as its id, auto increment\n\n  \tuint256 groupId; //topic permission groupId, 0 is default, means open to everyone\n\n  \taddress owner; //who create this topic, set default to the msg.sender\n\n  \tuint stake;//the stake for each joiner, unit in WEI\n\n  \t\n  \tstring description; //description includes  title;detail;category; and so on\n  \t// string title;\n  \t// string detail;\n  \t// string category;\n  \tuint8 rate; //rate for children or adult and so on\n\n  \t//Vote\n  \tstring options; //option name for the each choice, format: option1;option2\n  \tuint count1; //the count of voters of the first option, default 0\n  \tuint count2;\n\n\n  \tuint lastVoteTime;//the time for last one vote it\n  \tuint createTime;\n  \tuint expirationTime;\n\n  \tuint payUnit; //when voting expired, each winner can be paid in this amount\n  }\n\n\n\n  \t//groupId 0 means open\n    function addOpenTopic(uint stake, string memory description, uint8 rate, string memory options, uint expirationTime) public {\n    \t_addTopic(msg.sender, 0, stake, description, rate, options, expirationTime);\n    }\n    function addGroupTopic(uint groupId, uint stake, string memory description, uint8 rate, string memory options, uint expirationTime) onlyMember(groupId) public {\n    \t_addTopic(msg.sender, groupId, stake, description, rate, options, expirationTime);\n    }\n\n    function _addTopic(address owner, uint groupId, uint stake, string memory description, uint8 rate, string memory options, uint expirationTime) internal {\n    \t//init start with 1, so we can use id 0 as a special mark\n    \ttopicCount++;\n    \tTopic memory item  = Topic({id: topicCount, groupId: groupId, owner: owner, stake: stake, description: description,\n    \trate: rate, options: options, count1: 0, count2: 0, lastVoteTime:0, createTime: now, expirationTime: expirationTime, payUnit: 0}); \n    \ttopics[topicCount] = item;\n    \t// topicVoters[topicCount] = voters;\n    \townedTopics[owner].push(topicCount);\n    \t\n    }\n    // return the topic count\n    function getTopicCount() public view returns (uint) {\n    \treturn topicCount;\n    }\n    // get topic by id\n    // can Vote means only return topic user can vote\n    function getTopic(uint id, bool canVote) public view returns (\n    address owner, //who create this topic, set default to the msg.sender\n    \n  \tuint stake,//the stake for each joiner, unit in WEI\n\n  \t//Description data\n  \tstring memory description,\n  \t// string memory detail,\n  \t// string memory category, //the category of topic\n  \tuint8 rate, //rate for children or adult and so on\n\n  \t//Vote\n  \tstring memory options,\n  \tuint count1, //the count of voters of the first option, default 0\n  \tuint count2,\n\n\n  \tuint lastVoteTime,//the time for last one vote it\n  \tuint createTime,\n  \tuint expirationTime,\n\n    uint groupId//groupId of this topic, or permissionId\n    \t) {\n    \tTopic storage item = topics[id];\n    \tgroupId = item.groupId;\n    \t//topic filter\n    \tif (groupId != 0 && canVote) {\n    \t\trequire(groupController.checkMember(msg.sender, groupId));\n    \t}\n\n\n    \towner = item.owner;\n    \t\n    \tstake = item.stake;\n    \tdescription = item.description;\n    \t// detail = item.detail;\n    \t// category = item.category;\n    \trate = item.rate;\n    \toptions = item.options;\n    \tcount1 = item.count1;\n    \tcount2 = item.count2;\n\n    \tlastVoteTime = item.lastVoteTime;\n    \tcreateTime = item.createTime;\n    \texpirationTime = item.expirationTime;\n\n\n    \t\n    }\n    //EVM internal limit, have to split this attribute out to avoid stak too deep error\n    function getPayUnit(uint topic_id) public view returns(uint) {\n      return topics[topic_id].payUnit;\n    }\n    function getOwnedTopic(address owner) public view returns(uint[] memory) {\n    \tuint[] storage list = ownedTopics[owner];\n    \treturn list;\n    }\n\n    //1: vote expired\n    //2: user has not voted\n    //3: user has been paid\n    //4: divide 0 error\n    //0: no error\n    function checkPayPermission(uint topic_id) public view returns(uint) {\n      Topic storage item = topics[topic_id];\n      if (block.timestamp < item.expirationTime) {\n        return 1;\n      }\n      if (!isVote[msg.sender][topic_id]) {\n        return 2;\n      } \n      if (isPaid[msg.sender][topic_id]) {\n         return 3;\n      }\n      if (item.count1 == 0 || item.count2 == 0) {\n        return 4;\n      }\n      // if ((item.count1 > item.count2 && votedOption[msg.sender][topic_id] == 2)||(item.count2 > item.count1 && votedOption[msg.sender][topic_id] == 1)) {\n      //     return 5;\n      //   }\n      return 0;\n    }\n    //user check vote result of an topic\n    function payoff(uint topic_id) public {\n      require(checkPayPermission(topic_id) == 0);\n    \tisPaid[msg.sender][topic_id] = true;\n\n      Topic storage item = topics[topic_id];\n    \t//possible initialization\n    \tif (item.payUnit == 0) {\n    \t\tuint totalCount = item.count1 + item.count2;\n    \t\tif (item.count1 > item.count2) {\n    \t\t\titem.payUnit = totalCount * item.stake /item.count1 ;\n    \t\t} else if (item.count2 > item.count1) {\n    \t\t\titem.payUnit = totalCount * item.stake / item.count2;\n    \t\t} else {\n    \t\t\titem.payUnit = item.stake;\n    \t\t}\n    \t}\n\n      //user win or draw, or do nothing\n      if ((item.count1 > item.count2 && votedOption[msg.sender][topic_id] == 1)||(item.count2 > item.count1 && votedOption[msg.sender][topic_id] == 2)) {\n        _transfer(address(this), msg.sender, item.payUnit);\n      }\n\n\n    \t\n    }\n\n    //Return error code\n    //1: insufficient money\n    //2: no group permission\n    //3: duplicate vote\n    //4: outdated\n    function permissionCheck(uint topic_id) public view returns (uint8) {\n    \treturn _permissionCheck(msg.sender, topic_id);\n    }\n    function _permissionCheck(address user, uint topic_id) internal view returns(uint8) {\n    \tTopic storage item = topics[topic_id];\n    \t//insufficient money\n    \tif (balanceOf(user) < item.stake) {\n    \t\treturn 1;\n    \t}\n    \t//no group permission\n    \tif (item.groupId != 0 && !groupController.checkMember(user, item.groupId)) {\n    \t\treturn 2;\n    \t}\n    \t//duplicate vote, and keep single choice\n    \tif (isVote[user][topic_id]) {\n    \t\treturn 3;\n    \t} \n    \t//outdated\n    \tif (block.timestamp > item.expirationTime) {\n    \t\treturn 4;\n    \t}\n    \treturn 0;\n    \t//\n\n    }\n \tfunction isUserVote(address user, uint topic_id) public view returns(bool) {\n    \treturn isVote[user][topic_id];\n    }\n    function isUserPaid(address user, uint topic_id) public view returns(bool) {\n    \treturn isPaid[user][topic_id];\n    }\n\n    function vote(uint topic_id, uint option_index) public {\n    \trequire(permissionCheck(topic_id) == 0);\n\n      isVote[msg.sender][topic_id] = true;\n\n      votedOption[msg.sender][topic_id] = option_index;\n\n    \tTopic storage item = topics[topic_id];\n      //Note: because of the line below, integrate token contract with controller contract to avoid extra token approve transation\n    \ttransfer(address(this), item.stake);\n    \tif (option_index == 1) {\n    \t\titem.count1 +=1;\n    \t} else if (option_index == 2) {\n    \t\titem.count2 += 1;\n    \t}\n\n    }\n    function getVotedOption(uint topic_id) public view returns(uint) {\n      return votedOption[msg.sender][topic_id];\n    }\n\n\n}\n\n\n\n",
  "sourcePath": "/Users/zbw0046/oneDrive/OneDrive - HKUST Connect/CourseWork/MSBD6000D/project/VoteChain/chain/contracts/VoteController.sol",
  "compiler": {
    "name": "solc",
    "version": "0.4.25+commit.59dbf8f1.Emscripten.clang"
  },
  "schemaVersion": "2.0.2",
  "updatedAt": "2019-05-04T17:03:51.639Z"
}